S0140000535444494F5F53455249414C2E737265636E
S1130000FFC0000022C1000020C100001EC100008A
S11300101CC100001AC1000018C1000016C1000074
S113002014C1000012C1000010C100000EC1000084
S11300300CC100000AC1000008C1000006C1000094
S113004004C1000002C1000000C10000FEC00000A5
S1130050FCC00000FAC00000F8C00000F6C00000B8
S1130060F4C00000F2C00000F0C00000EEC00000C8
S1130070ECC00000EAC00000E8C00000E6C00000D8
S1130080E4C00000E2C00000E0C00000DEC00000E8
S1130090DCC00000DAC00000D8C00000D6C00000F8
S11300A0D4C00000D2C00000D0C00000CEC0000008
S11300B0CCC00000CAC00000C8C00000C6C0000018
S11300C0C4C00000C2C00000C0C00000BEC0000028
S11300D0BCC00000BAC00000B8C00000B6C0000038
S11300E0B4C00000B2C00000B0C00000AEC0000048
S11300F0ACC00000AAC00000A8C00000A6C0000058
S1130100A4C00000A2C00000A0C000009EC0000067
S11301109CC000009AC0000098C0000096C0000077
S113012094C0000092C0000090C000008EC0000087
S11301308CC000008AC0000088C0000086C0000097
S113014084C0000082C0000080C000007EC00000A7
S11301507CC000007AC0000078C0000076C00000B7
S113016074C0000072C0000070C000006EC00000C7
S11301706CC000006AC0000068C0000066C00000D7
S113018064C0000062C0000060C000005EC00000E7
S11301905CC000005AC0000058C0000056C00000F7
S11301A054C0000052C0000050C000004EC0000007
S11301B04CC000004AC0000048C0000046C0000017
S11301C044C0000042C0000040C000003EC0000027
S11301D03CC000003AC0000038C0000036C0000037
S11301E034C0000032C0000030C000002EC0000047
S11301F02CC000006364696E6F70737578585B007F
S113020011241FBECFEFDFE3DEBFCDBF00E00CBF84
S113021018BE19BE1ABE1BBE10E2A0E0B0E2E4EEA6
S1130220FCE100E00BBF02C007900D92AE32B107B3
S1130230D9F71BBE10E2AEE2B0E201C01D92AE33AC
S1130240B107E1F727D30C94700EDACE8FEF8093C9
S11302507000809371008093720080937300809388
S11302607400809375008093760081E490E061E0EF
S1130270D2D0E0E5F0E0818184FD19C0818181FD67
S113028009C08FB7F8949081926090838FBF818169
S113029081FFFDCF8FB7F894E0E5F0E098E895830F
S11302A09081906190838FBF818184FFFDCF80E432
S11302B090E064E0B0D08FB7F894E0E5F0E090818E
S11302C09E7F90838FBF08959FB7F894E82FF0E046
S11302D0E059FF4F60958081682360839FBF089534
S11302E0CF93DF930F920F92CDB7DEB78091322078
S11302F090913320E0912E20F0912F20BE016F5F6A
S11303007F4F199589819A810F900F90DF91CF913A
S113031008952091322030913320682F772767FD8C
S11303207095E0913020F0913120C90119959923FD
S11303301CF48FEF9FEF089581E090E0089580E82A
S113034096E061E040E053E06CD080E896E062E043
S113035040E053E066D080E896E064E040E053E09B
S113036060D080E896E068E040E053E05AD080E84E
S113037096E060E140E053E054D080E896E060E22B
S113038040E053E04ED080E896E060E440E053E083
S113039048D080E896E060E840E053E042D080E650
S11303A096E061E048E150E03CD080E696E062E00F
S11303B048E150E036D080E696E064E048E150E061
S11303C030D080E696E068E048E150E02AD080E64C
S11303D096E060E148E150E024D080E696E060E2F7
S11303E048E150E01ED080EE97E061E048E150E043
S11303F018D080EE97E062E048E150E012D080E44B
S113040096E068E040E053E00CD080E496E064E0DD
S113041040E050E006C01BBEFC0128ED24BF608311
S11304200895CF93DF93EC01DA01FC01709620E08C
S113043030E0462F50E0CA01022E02C09595879500
S11304400A94E2F780FDA0832F5F3F4F3196283056
S1130450310589F7B0FF07C0B1FF02C06D8301C049
S11304606E83698301C06A83DF91CF910895FC0193
S1130470818185FFFDCF608380E090E00895FC01D9
S1130480818187FFFDCF808108956F927F928F9243
S11304909F92AF92BF92CF92DF92EF92FF920F930F
S11304A01F93CF933C014A015B0168017901D90193
S11304B0C801689412F8B695A795979587951694F0
S11304C0D1F7B901A801032E36E1769567955795C2
S11304D047953A95D1F7302DF301248122FD08C0C8
S11304E0B695A7959795879576956795579547956A
S11304F088159905AA05BB0508F4BEC0841695069F
S1130500A606B70608F4BAC0D30114968C911497C2
S113051082FD04C0880C991CAA1CBB1CC701B6012F
S1130520A501940142D489019A010F3F11052105C7
S1130530310508F4B2C08FEF90E0A0E0B0E0C9EF5D
S113054005C0081719072A073B0760F0880F991F91
S1130550AA1FBB1FCD3F0CF48160CF5FC73089F762
S11305602C2F5BC02C2FCC230CF057C0D501C40119
S1130570880F991FAA1FBB1F880F991FAA1FBB1F93
S1130580880F991FAA1FBB1FC81AD90AEA0AFB0AB7
S1130590CE3F2CF58C2F992787FD90954DEF5FEF7B
S11305A0481B590BD701C60104C0880F991FAA1F05
S11305B0BB1F4A95D2F7AC01BD01D501C401B69564
S11305C0A79597958795840F951FA61FB71FBC0104
S11305D0CD01A5019401E9D389019A013FC08C2F73
S11305E0992787FD9095039604C0880C991CAA1C32
S11305F0BB1C8A95D2F7B501A401769567955795EA
S11306004795CB01BA016C0D7D1D8E1D9F1DA50163
S11306109401CBD389019A0121C0332727FD30955A
S11306202D5F3F4FD501C40104C0880F991FAA1F35
S1130630BB1F2A95D2F79C01AD01B695A795979556
S11306408795C80ED91EEA1EFB1EC701B601ADD39D
S113065089019A010150104020403040812F8F7051
S1130660C295C07FC82BD3011796CC9317971696C3
S11306700C93169781E003C080E001C080E0CF9125
S11306801F910F91FF90EF90DF90CF90BF90AF90AC
S11306909F908F907F906F900895D501C401880F2B
S11306A0991FAA1FBB1F880F991FAA1FBB1F880F62
S11306B0991FAA1FBB1FC81AD90AEA0AFB0AC9EF65
S11306C069CF0F931F93CF93DF93EC018B0188E0E5
S11306D0C03AD80721F483E060E1F6DD10C0E8E019
S11306E0C03BDE0721F483E060E2EEDD10C0F9E0F8
S11306F0C03ADF0721F484E060E1E6DD10C089E060
S1130700C03BD80721F484E060E2DEDD10C0EAE0FB
S1130710C03ADE0721F485E060E1D6DD10C0FAE0DE
S1130720C03BDF0721F485E060E2CEDD0FC08BE043
S1130730C03AD80721F486E060E1C6DD07C0EBE0EB
S1130740C03BDE0719F486E060E2BEDD8D818F7365
S11307508D83F80195818481892B9681992311F0E9
S113076098E001C090E0892B8D83F801408151818C
S113077062817381CE0100E018E428EE31E085DE69
S11307808C8188608C838C8180618C83DF91CF9194
S11307901F910F910895CF93DF93EB0170DE88834F
S11307A0DF91CF91089563CE08950F931F93CF9354
S11307B0DF9300D00F92CDB7DEB7882341F100E676
S11307C01EEA2AE030E009831A832B833C834981A3
S11307D05A816B817C814115510561057105A9F030
S11307E049815A816B817C81415050406040704006
S11307F049835A836B837C8349815A816B817C81D1
S1130800411551056105710559F78150E1F62496AA
S1130810CDBFDEBFDF91CF911F910F910895CF938C
S1130820DF93CDB7DEB72797CDBFDEBF0FDD87DD02
S113083080EA98E0809332209093332083ED93E014
S113084080933020909331208BEC93E080932E2082
S113085090932F2083E08D831E821F8280E091EE8F
S1130860A0E0B0E089839A83AB83BC8383E060E13A
S11308702BDD80EA98E0BE016F5F7F4F22DF89E8BD
S113088091E060E771E0B3D22796CDBFDEBFDF9180
S1130890CF910895CF93DF930F92CDB7DEB7BFDF2B
S11308A08AE289830F920F9280E090E2ADB7BEB7DF
S11308B011968D939C931297E3D20F900F90EE2490
S11308C00F2EFAE3DF2EF02D0F2EF7E1FF2EF02D81
S11308D00FE11CE00F2EFDEDAF2EF7E0BF2EF02D43
S11308E00F2EF0EA8F2EF8E09F2EF02D0F2EFAE255
S11308F0CF2EF02D0F2EF1E16F2EF0E27F2EF02D92
S11309000F2EFCE04F2EF0E25F2EF02D0F2EF3E2BF
S11309102F2EF0E23F2EF02D81E047DFF40181819C
S113092087FF17C000D00F92E6E0F0E2ADB7BEB784
S11309301196ED93FC93129781E090E08C0F9D1F2C
S113094013968D939C931497B1D20F900F900F90A0
S11309500F9089818734D1F1883470F4833469F13C
S1130960843428F48134B1F08234C9F532C084343B
S113097009F18634A1F524C0863529F1873528F498
S1130980883451F1833559F50FC0883581F08A35A3
S113099031F505C00894A11CB11CC98220C008947B
S11309A0A108B108C9821BC01F5FC98218C01150B9
S11309B0C98215C00F5FC98212C00150C9820FC01D
S11309C0F394C9820CC0FA94C98209C0D394C98231
S11309D006C0DA94C98203C0C982EE2406C0E39437
S11309E09CE3E91611F4D394EE24ACE3DA1619F47B
S11309F0F394DD2408C0BFEFDB1629F4FA940F2E1C
S1130A00FBE3DF2EF02DE8E1FE1619F40F5FFF245F
S1130A1008C0FFEFFF1629F401500F2EF7E1FF2E57
S1130A20F02D113019F40032B8F50AC0123019F45F
S1130A300D3190F50AC0133019F4003268F50AC07C
S1130A40143019F40F3140F50AC0153019F400328E
S1130A5018F50AC0163019F40F31F0F40AC0173033
S1130A6019F40032C8F40AC0183019F40032A0F4A2
S1130A700AC0193019F40F3178F40AC01A3019F485
S1130A80003250F40CC01B3019F40F3128F411C09B
S1130A901C3029F4003298F01F5F01E04CC0113083
S1130AA041F4002361F40894A108B1080FE11CE0AB
S1130AB05CC0123021F4002309F456C106C013307F
S1130AC021F4002309F453C106C0143021F4002397
S1130AD009F450C106C0153021F4002309F44DC1B6
S1130AE006C0163021F4002309F44AC106C01730A9
S1130AF021F4002309F447C106C0183021F400236F
S1130B0009F444C106C0193021F4002309F441C199
S1130B1006C01A3021F4002309F43EC106C01B307C
S1130B2021F4002309F43BC106C01C3021F4002346
S1130B3009F438C11AC01123C1F40894A108B108FA
S1130B4000D00F92E9E0F0E2ADB7BEB71196ED9395
S1130B50FC9312971396AD92BC92149791D10F9077
S1130B600F900F900F901CE042C01D30C1F4089408
S1130B70A11CB11C00D00F92E9E0F0E2ADB7BEB702
S1130B801196ED93FC9312971396AD92BC92149721
S1130B9077D10F900F900F900F9011E015C000D0F7
S1130BA00F92E9E0F0E2ADB7BEB71196ED93FC9376
S1130BB012971396AD92BC92149762D10F900F9036
S1130BC00F900F901A3098F400D00F92EDB7FEB743
S1130BD03196ADB7BEB711964D925C9212971283BF
S1130BE013824ED10F900F900F900F9012C000D02F
S1130BF00F92EDB7FEB73196ADB7BEB711966D92B1
S1130C007C921297128313823BD10F900F900F9016
S1130C100F900A3098F400D00F92EDB7FEB73196DA
S1130C20ADB7BEB711964D925C92129702831382B0
S1130C3027D10F900F900F900F9012C000D00F92F9
S1130C40EDB7FEB73196ADB7BEB711966D927C92F3
S1130C5012970283138214D10F900F900F900F906C
S1130C60B9E0BF15A8F000D00F92EDB7FEB73196EA
S1130C7085E190E2ADB7BEB711968D939C93129720
S1130C80F2821382FDD00F900F900F900F9014C03A
S1130C9000D00F92EDB7FEB731968AE190E2ADB77E
S1130CA0BEB711968D939C931297F2821382E8D06B
S1130CB00F900F900F900F9099E09D15A8F000D021
S1130CC00F92EDB7FEB731968EE190E2ADB7BEB7A5
S1130CD011968D939C931297D2821382D1D00F9048
S1130CE00F900F900F9012C000D00F92EDB7FEB787
S1130CF03196ADB7BEB711962D923C921297D2821F
S1130D001382BED00F900F900F900F90B9E0BE15D4
S1130D10A8F000D00F92EDB7FEB731968EE190E2C5
S1130D20ADB7BEB711968D939C931297E28213824E
S1130D30A7D00F900F900F900F9012C000D00F9279
S1130D40EDB7FEB73196ADB7BEB711962D923C9272
S1130D501297E282138294D00F900F900F900F900D
S1130D608DE090E09ED0D8CD0FE111E0FECE0CE1F5
S1130D7012E0FBCE0FE113E0F8CE0EE114E0F5CE65
S1130D800FE115E0F2CE0EE116E0EFCE0FE111E037
S1130D90ECCE0FE118E0E9CE0EE119E0E6CE0FE16A
S1130DA01AE0E3CE0EE11BE0E0CEA1E21A2EAA1B6C
S1130DB0BB1BFD010DC0AA1FBB1FEE1FFF1FA21707
S1130DC0B307E407F50720F0A21BB30BE40BF50B04
S1130DD0661F771F881F991F1A9469F7609570958D
S1130DE0809590959B01AC01BD01CF0108950F93AF
S1130DF01F93CF93DF938C01EB01009711F420979D
S1130E00B9F181E090E06EE070E005D5FC01009757
S1130E1089F180E88383209771F0C287D38781E8C2
S1130E2083838091342090913520009721F4E093BE
S1130E303420F093352001151105E1F00087118766
S1130E40838182608383809136209091372000973C
S1130E5089F4E0933620F0933720809138209091E4
S1130E603920009739F4E0933820F093392002C0F8
S1130E70E0E0F0E0CF01DF91CF911F910F91089551
S1130E80CF93DF93CDB7DEB7FE01369661917191B2
S1130E908091362090913720AF0119D0DF91CF9106
S1130EA00895609136207091372070C6CF93DF93F8
S1130EB0CDB7DEB7FE0136966191719180913420F1
S1130EC090913520AF0188D3DF91CF9108952F926F
S1130ED03F924F925F926F927F928F929F92AF92C6
S1130EE0BF92CF92DF92EF92FF920F931F93CF9313
S1130EF0DF93CDB7DEB72D97CDBFDEBF3C016C8746
S1130F007D875A01FC0116821782838181FFBBC150
S1130F102E010894411C511CF3019381EC85FD853D
S1130F2093FD859193FF8191EC87FD87882309F4D4
S1130F30A6C1853241F493FD859193FF8191EC879D
S1130F40FD87853221F490E0B30120D6E5CFFF245C
S1130F50EE2410E01032B0F48B3269F08C3228F4B5
S1130F60803251F0833271F40BC08D3239F080330A
S1130F7049F411602CC01260146029C0186027C0A5
S1130F80106125C017FD2EC0282F20532A3098F455
S1130F9016FF08C08F2D880FF82EFF0CFF0CF80EDB
S1130FA0F20E15C08E2D880FE82EEE0CEE0CE80E16
S1130FB0E20E10620CC08E3221F416FD60C1106482
S1130FC006C08C3611F4106802C0883659F4EC85DA
S1130FD0FD8593FD859193FF8191EC87FD8788239F
S1130FE009F0B8CF982F9554933018F0905293305D
S1130FF038F424E030E0A20EB31E3FE339830FC07F
S1131000833631F0833781F0833509F056C021C02F
S1131010F5018081898322E030E0A20EB31E21E035
S1131020C22ED12C420113C092E0292E312C2A0C5D
S11310303B1CF5018080918016FF03C06F2D70E08A
S113104002C06FEF7FEFC40156D56C0151011F77C9
S113105014C082E0282E312C2A0C3B1CF501808020
S1131060918016FF03C06F2D70E002C06FEF7FEF19
S1131070C4012FD56C011068510113FD1AC005C0BD
S113108080E290E0B30182D5EA948E2D90E0C816F8
S1131090D906B0F30EC0F40117FD859117FF8191B5
S11310A04F0190E0B30172D5E110EA940894C108AD
S11310B0D108C114D10479F7DFC0843611F0893620
S11310C049F5F50117FF07C080819181A281B381A1
S11310D024E030E008C080819181AA2797FDA09583
S11310E0BA2F22E030E0A20EB31E012F0F76B7FF15
S11310F008C0B095A095909581959F4FAF4FBF4F75
S11311000068BC01CD01A2012AE030E088D5D82EC8
S1131110D4183EC0853721F41F7E2AE030E020C079
S1131120197F8F36A9F0803720F4883509F0A7C0DD
S11311300BC0803721F0883709F0A1C001C01061CD
S113114014FF09C0146007C014FF08C0166006C06D
S113115028E030E005C020E130E002C020E132E0C8
S1131160F50117FF07C0608171818281938144E09A
S113117050E006C06081718180E090E042E050E080
S1131180A40EB51EA2014BD5D82ED418012F0F776B
S113119006FF09C00E7FDF1430F404FF06C002FD11
S11311A004C00F7E02C01D2D01C01F2D802F90E0B2
S11311B004FF0CC0FE01ED0DF11D2081203311F45C
S11311C0097E09C002FF06C01E5F05C086789070C4
S11311D0009709F01F5F802E992403FD11C000FFC2
S11311E00CC0FD2C1E1548F4FE0CF11A1E2D05C072
S11311F080E290E0B301CAD41F5F1E15C8F304C097
S11312001E1510F4E11A01C0EE2484FE0EC080E322
S113121090E0B301BBD482FE1DC081FE03C088E50B
S113122090E010C088E790E00DC0C401867890700B
S1131230009781F081FC02C080E201C08BE207FDCF
S11312408DE290E0B301A2D405C080E390E0B30145
S11312509DD4FA94DF14C8F3DA94F201ED0DF11D74
S1131260808190E0B30192D4DD20B1F705C080E223
S113127090E0B3018BD4EA94EE20C9F74DCEF3018C
S11312808681978102C08FEF9FEF2D96CDBFDEBF81
S1131290DF91CF911F910F91FF90EF90DF90CF904E
S11312A0BF90AF909F908F907F906F905F904F9082
S11312B03F902F90089520FD09C0FC0123FD05C037
S11312C022FF02C073836283518340830895CF92C7
S11312D0DF92EF92FF926B017C0144FD10C046FD4A
S11312E010C0D601F701AA0FBB1FEE1FFF1F1094F9
S11312F0D1F7CA0EDB1EEE1EFF1E81E003C083E0A1
S113130001C084E0CC0CDD1CEE1CFF1C8150D1F725
S1131310C20ED11CE11CF11CB601C701FF90EF9075
S1131320DF90CF9008950F931F93CF93DF938C0199
S1131330C801ECD3EC0197FD06C0B8D30097C1F700
S1131340CE01B8014FD4CE01DF91CF911F910F91FF
S11313500895AF92BF92CF92DF92EF92FF920F93D4
S11313601F93CF93DF938C01D62F5A01C22FCED374
S11313708B3219F08D3241F4C068D15009F45AC04F
S1131380C801C4D397FD56C0CD7F2C2F2073C1F460
S11313908033B1F4D15009F439C0C801B7D397FDF3
S11313A035C0C260883711F0883541F4C064D1502B
S11313B069F1C801ABD397FF03C028C0C6FFC06161
S11313C0CC24DD247601282F2053283078F0C4FD66
S11313D009C02A3058F0C6FF05C02F7D322F315185
S11313E0363018F0B801FED30EC02750C701B6013D
S11313F04C2F6DDF6B017C01C260D15051F0C801EC
S113140085D397FFE0CFC1FD04C014C0CC24DD24F4
S11314107601C7FF08C0F094E094D094C094C11C36
S1131420D11CE11CF11CC501B701A6012C2F43DF1F
S113143081E001C080E0DF91CF911F910F91FF9077
S1131440EF90DF90CF90BF90AF9008954F925F924E
S11314506F927F928F929F92AF92BF92CF92DF92C0
S1131460EF92FF920F931F93CF93DF93CDB7DEB725
S1131470A097CDBFDEBF5C01062F7A016901FE0192
S1131480319680E2DF011D928A95E9F7D501139622
S11314901C91139760E070E020E040E030E04F01E1
S11314A081E0682E712CF60113FD559113FF5191C3
S11314B06F01552309F479C05E3519F4611571057E
S11314C049F1832F90E0861797073CF45D3551F17D
S11314D05D3219F4442301F103C0442309F4252F98
S11314E0852F869586958695F401E80FF11D852F45
S11314F08770230102C0440C551C8A95E2F7808151
S113150084298083521751F0521710F45F5FE8CF9B
S11315105150E6CF31E003C041E001C040E06F5FCD
S11315207F4FC1CF442319F08E8180628E83332391
S113153051F0FE013196CE018196208120952193B0
S1131540E817F907D1F711E001C010E0C501DED2B8
S11315509C0197FD22C0869586958695E1E0F0E092
S1131560EC0FFD1FE80FF11D408150E0C9018770A9
S1131570907002C0559547958A95E2F740FD04C0E6
S1131580C901B5012FD309C0E114F10419F0D70141
S11315902D937D010150C9F602C0112331F4E114E9
S11315A0F10429F0F701108202C0CC24DD24C60125
S11315B0A096CDBFDEBFDF91CF911F910F91FF9019
S11315C0EF90DF90CF90BF90AF909F908F907F90DF
S11315D06F905F904F9008955F926F927F928F9279
S11315E09F92AF92BF92CF92DF92EF92FF920F93AE
S11315F01F93CF93DF930F92CDB7DEB77C015B01CE
S11316003A01FC01168217829924E1C0812F90E0EF
S11316104DD2009719F0C70186DED9C0153241F4C6
S1131620F50103FD359103FF31915F01353251F42A
S1131630C7016CD297FDD7C0181709F4C8C0B70109
S1131640D1D2D3C03A3241F403FD359103FF319135
S11316505F015524539401C0552488240FC0F2E03F
S11316605F2A682D70E080E090E040E230DE862E54
S1131670F50103FD359103FF31915F01232F2053C1
S11316802A3068F351FE03C0882019F4AEC08824C0
S11316908A94383619F03C3699F40AC0F50103FDF2
S11316A0359103FF31915F01383651F4F8E05F2A38
S11316B044E0542AF50103FD359103FF31915F01A4
S11316C0332309F492C084EF91E0632F70E03983EF
S11316D0F5D13981009709F488C0852D50FC08C0E4
S11316E0F3010081118142E050E0640E751E02C0D6
S11316F000E010E03E3649F4F7014681578160E08E
S113170070E0C801252DD7DD62C0333689F481FD30
S113171002C088248394C701F9D197FD64C00115E0
S1131720110519F0F80181938F018A94A1F74DC036
S1131730C7013B3549F4682DA801950187DE5C019A
S1131740009709F042C03CC03983EDDD398197FD33
S11317504AC03F3649F1303728F4343611F139366E
S113176031F527C0333719F0353709F51AC0C701E9
S1131770CDD16C0197FD0FC099D1009721F0C6011E
S1131780B70130D208C00115110519F0F801C19252
S11317908F018A9461F701151105B9F0F8011082DF
S11317A014C0F0E25F2A05C040E1542A02C050E4AC
S11317B0552AC701682DA801252DCBDD882329F4DE
S11317C0F7018381807379F410C050FE9394F7017C
S11317D00381F50103FD159103FF11915F011123AD
S11317E009F014CF02C0992019F0892D90E002C0AD
S11317F08FEF9FEF0F90DF91CF911F910F91FF908B
S1131800EF90DF90CF90BF90AF909F908F907F909C
S11318106F905F9008950F931F93CF93DF93689F0A
S11318208001699F100D789F100D1124C8010FD0FD
S1131830C82FD92F209729F08C2F60E070E0A801E1
S113184053D1CE01DF91CF911F910F910895CF9382
S1131850DF93AC018230910510F442E050E0E09156
S11318603C20F0913D2020E030E0A0E0B0E024C036
S11318708081918184179507D0F08417950771F4BE
S113188082819381109729F012968D939C931397DC
S11318902CC080933C2090933D2027C02115310516
S11318A019F08217930718F49C01BD01EF0192818E
S11318B08381DF01E92FF82F3097D1F62115310507
S11318C0F9F0C901841B950B8430910580F48A8159
S11318D09B816115710521F0FB018283938304C010
S11318E080933C2090933D20FE01329642C0FE013D
S11318F0E80FF91F4193519302978883998339C064
S113190080913A2090913B20009741F480912920C6
S113191090912A2080933A2090933B202091272075
S1131920309128202115310541F42DB73EB780911F
S11319302B2090912C20281B390BE0913A20F09118
S11319403B20E217F30798F42E1B3F0B24173507AF
S113195070F0CA0102962817390748F08E0F9F1FAE
S113196080933A2090933B204193519302C0E0E04E
S1131970F0E0CF01DF91CF9108950F931F93CF93A0
S1131980DF939C01009709F48CC0DC011297129636
S11319901D921C92139760913C2070913D2061151B
S11319A0710589F48D919C911197820F931F209159
S11319B03A2030913B202817390769F5A0933A2043
S11319C0B0933B206EC0FB0140E050E001C0FC013D
S11319D0EA17FB0730F482819381AF010097B9F7CE
S11319E01FC0E9012297EA83FB8308811981C90199
S11319F0800F911F8E179F0759F480819181800F6A
S1131A00911F029688839983828193818A839B8321
S1131A104115510529F4A0933C20B0933D2041C0C9
S1131A20FA01A283B383C191D191EC0FFD1FAE17CC
S1131A30BF0781F4F901929182918C0F9D1F029648
S1131A40DA018D939C9311978281938112968D93E1
S1131A509C931397E0E0F0E002C0FB01BC01DB01C2
S1131A6012968D919C9113970097B9F7CB0102962A
S1131A702D913C911197820F931F20913A20309120
S1131A803B202817390769F4309729F410923C2039
S1131A9010923D2002C01282138260933A20709308
S1131AA03B20DF91CF911F910F910895911115C1A2
S1131AB0803219F089508550D0F70895FC010590C3
S1131AC0061621F00020D9F7C00108953197CF01FF
S1131AD00895FC010590615070400110D8F780957D
S1131AE090958E0F9F1F0895DC0101C06D934150A6
S1131AF05040E0F70895FC016150704001900110DE
S1131B00D8F7809590958E0F9F1F0895CF93DF93FC
S1131B10EC012B8120FF35C026FF09C02F7B2B83CE
S1131B208E819F8101968E839F838A8128C022FFA4
S1131B300FC0E881F9818081992787FD90950097EE
S1131B4019F420622B831DC03196E883F98311C0F8
S1131B50EA85FB85CE01199597FF0BC02B813FEFDA
S1131B608F3F930711F480E101C080E2822B8B83C5
S1131B7008C02E813F812F5F3F4F2E833F8390E02B
S1131B8002C08FEF9FEFDF91CF9108950F931F93C2
S1131B90CF93DF938C01EB018B8181FF1BC082FF0C
S1131BA00DC02E813F818C819D812817390764F4F3
S1131BB0E881F9810193E883F98306C0E885F98512
S1131BC0802F1995009731F48E819F8101968E8321
S1131BD09F8302C00FEF1FEFC801DF91CF911F91C8
S1131BE00F910895FB01238120FF13C026FD11C02E
S1131BF03FEF8F3F930781F08283922F90649F7D04
S1131C00938326813781215030402683378390E0A7
S1131C1008958FEF9FEF08958FEF9FEF0895FA01D6
S1131C20AA27283051F1203181F1E8946F936E7F17
S1131C306E5F7F4F8F4F9F4FAF4FB1E03ED0B4E008
S1131C403CD0670F781F891F9A1FA11D680F791F49
S1131C508A1F911DA11D6A0F711D811D911DA11D5A
S1131C6020D009F468943F912AE0269F112430196A
S1131C70305D3193DEF6CF010895462F4770405D05
S1131C804193B3E00FD0C9F7F6CF462F4F70405DB4
S1131C904A3318F0495D31FD4052419302D0A9F70F
S1131CA0EACFB4E0A6959795879577956795BA9509
S1131CB0C9F700976105710508959B01AC010A2ECF
S1131CC006945795479537952795BA95C9F7620FA6
S1131CD0731F841F951FA01D0895992788270895B1
S1071CE0F894FFCFA2
S1131CE40A0A0A0A0D002563002564002F302564BE
S1131CF4002F2564002030256400202564003A3038
S1111D042564003A25640000003E2020000003
S9030000FC
